:100000000C942A000C94B9020C94E2020C94470060
:100010000C9447000C9447000C943E020C9462022E
:100020000C9447000C9447000C9447000C94E70490
:100030000C9418050C9447000C9449030C94470049
:100040000C9447000C9447000C9447000C94470014
:100050000C94470011241FBECFE5D4E0DEBFCDBF16
:1000600010E0A0E6B0E0EEE2FBE002C005900D92E9
:10007000AC36B107D9F710E0ACE6B0E001C01D9294
:10008000AB3AB107E1F70E9476000C9495050C9409
:100090000000982F813011F48FEF089580E09230A6
:1000A00009F481E00895982F813011F48FEF0895BD
:1000B00080E0923009F481E008951F93982F929583
:1000C0009F70182F1F709A301CF4892F805D02C01A
:1000D000892F895A1A3014F4105D01C0195A0E94F0
:1000E000C404812F0E94C4041F910895AF92BF924F
:1000F000CF92DF92EF92FF920F931F93CF93DF93F4
:1001000087B38F6087BB80E895E20E9493040E94CA
:10011000E2040E94A8010E94860280E090E00E9412
:10012000CA0180E090E00E9404020E94330385B37C
:10013000806F85BBBC9A86EAE82E8EE0F82E789414
:1001400083B390E08073907004E0959587950A954D
:10015000E1F7813011F4AFEF04C0A0E0823009F480
:10016000A1E083B38295869586958370813011F4E2
:10017000EFEF04C0E0E0823009F4E1E0AF5FA330CC
:1001800018F000E010E00AC0BB27A7FDB095AA0F49
:10019000BB1FA05ABF4F0D911C911197EF5FE33029
:1001A00018F0C0E0D0E009C0FF27E7FDF095EE0FA2
:1001B000FF1FEA59FF4FC081D181C8010E94CA01C7
:1001C000CE010E9404020115110509F0A1C020977B
:1001D00009F09EC0C7010197F1F788E00E943C0337
:1001E0008C0185E00E943C0308521040081B190B4B
:1001F00089E00E943C03EC0186E00E943C036E0112
:10020000C81AD90AE601CC0FDD1FCC0DDD1DD6952D
:10021000C795D695C795EC978AE00E943C036C0180
:1002200087E00E943C0328ED3FEFC20ED31EC81AA0
:10023000D90A580117FF02C0AA24BB24D7FF02C065
:10024000C0E0D0E0D7FE02C0CC24DD2490918F0026
:100250008091AA00981721F5C50174E096958795BD
:100260007A95E1F70E945D008AE30E94C404CE0102
:1002700064E0969587956A95E1F70E945D008AE3B0
:100280000E94C404C60154E0969587955A95E1F7FB
:100290000E945D008AE00E94C4048DE00E94C404B4
:1002A0003DE2A31631E0B30654F460E09501220F5D
:1002B000331FCE018C0D9D1D821793070CF461E056
:1002C0008DE2C81681E0D8064CF410E0C601880F14
:1002D000991FCA0DDB1DC817D9070CF411E024E6DD
:1002E000A216B1040CF460E034E6C316D1040CF499
:1002F00010E081E00E940F0382E0612F0E940F0353
:1003000060B3647080E00E940F0360B368701CC02B
:1003100060E0101611060CF461E081E00E940F030A
:1003200060E01C161D060CF461E082E00E940F03E1
:10033000612F661F6627661F80E00E940F036E0113
:100340006D2D661F6627661F83E00E940F03F7CEA0
:1003500080918E00826080938E0082B3806F82BB1A
:1003600081B3806F81BB82EF8FBD81E08EBD89B785
:1003700089BF08958FB7F89410926E0010926D00A7
:100380001092700010926F001BBC1ABC19BC18BCF4
:100390008FBF089562E070E00E946005862F972F5E
:1003A00022E080309207D4F42EEF813092071CF4C3
:1003B00081E09EEF02C097FF13C022273327281B3E
:1003C000390B30936E0020936D00969B04C0809192
:1003D0006C00827011C03BBD2ABD08958FEF91E083
:1003E00090936E0080936D00969B03C09BBD8ABD69
:1003F000089580916C00816080936C001BBC1ABCD6
:1004000089B7806189BF089562E070E00E9460054D
:10041000862F972F22E080309207D4F42EEF813080
:1004200092071CF481E09EEF02C097FF13C02227C1
:100430003327281B390B3093700020936F00979B54
:1004400003C039BD28BD089580916C0082600BC047
:100450008FEF91E09093700080936F00979B0BC09B
:1004600080916C00817080936C0019BC18BC89B7B6
:10047000886089BF089599BD88BD08951F920F9225
:100480000FB60F9211248F939F93859B14C082B354
:1004900090916C0090FD02C090E001C090E48F7BD1
:1004A000892B82BB80916D0090916E009BBD8ABDAF
:1004B00089B78F7E89BF9F918F910F900FBE0F904C
:1004C0001F9018951F920F920FB60F9211248F93C1
:1004D0009F93849B14C082B390916C0091FD02C0E5
:1004E00090E001C090E88F77892B82BB80916F00EC
:1004F0009091700099BD88BD89B7877F89BF9F9112
:100500008F910F900FBE0F901F90189585B78F6039
:1005100085BF8BB7806C8BBF969A979808958FB7DD
:10052000F89410927300109272001092750010925D
:1005300074008FBF08959FB7F89420917200309196
:100540007300882321F010927300109272009FBFF5
:10055000C90108959FB7F8942091740030917500F7
:10056000882321F010927500109274009FBFC9017A
:1005700008951F920F920FB60F9211248F939F939D
:10058000969B0BC0809171008F5F8093710080916A
:1005900072009091730001960AC0809171008150A1
:1005A00080937100809172009091730001979093F5
:1005B0007300809372009F918F910F900FBE0F90E8
:1005C0001F9018951F920F920FB60F9211248F93C0
:1005D0009F93979B0BC0809176008150809376000B
:1005E000809174009091750001970AC08091760007
:1005F0008F5F8093760080917400909175000196D2
:1006000090937500809374009F918F910F900FBE0F
:100610000F901F90189587B38F6087BB089566234E
:1006200089F0813049F0813028F0823039F0833010
:10063000C9F406C0C09A0895C19A0895C29A08954F
:10064000C39A0895813049F0813028F0823039F022
:10065000833041F406C0C0980895C1980895C298A7
:100660000895C398089580918E00816080938E00D4
:100670008FEE86B9BC9A08952FB7F894E82FF0E072
:10068000EE0FFF1FE858FF4F808191812FBF089523
:1006900008951F920F920FB60F9211242F933F933C
:1006A0004F935F936F937F938F939F93AF93BF937A
:1006B000EF93FF938091770024B135B18530C9F174
:1006C000863080F4823031F1833030F48823C1F0F9
:1006D000813009F04DC019C0833009F1843009F030
:1006E00047C022C08830A9F1893028F4863031F122
:1006F0008730F1F529C0893089F18A30C9F533C0D6
:10070000309379002093780033C030937B0020939E
:100710007A002EC030937D0020937C0029C0309356
:100720007F0020937E0024C03093830020938200BA
:100730001FC030938500209384001AC03093870037
:1007400020938600C49814C03093810020938000C9
:100750000FC030938900209388000AC030938B002B
:1007600020938A0005C030938D0020938C00C49A9A
:100770008F5F809377008B3010F01092770080911C
:100780007700853061F1863070F48230F9F0833083
:1007900028F48823B1F0813031F516C08330D9F0C8
:1007A000843009F51AC08830C1F0893028F48630C9
:1007B00081F08730C1F40FC0893089F08A3099F414
:1007C00010C081E487B911C082E401C083E487B915
:1007D0000EC08EE5FCCF85E4FACF86E4F8CF87E43F
:1007E000F6CF80E4F4CF882311F40E944803FF91F0
:1007F000EF91BF91AF919F918F917F916F915F9199
:100800004F913F912F910F900FBE0F901F90189511
:1008100084E00E943C03BC0180E093EC0E944C0504
:1008200049E150E0649F9001659F300D749F300D49
:100830001124C90108950F931F93082F162F81E0EB
:1008400061E00E940F0382E061E00E940F0380E0FC
:1008500061E00E940F0383E061E00E940F0327E73D
:1008600031E008C088EE93E0F9013197F1F7019784
:10087000D9F701500023B1F781E060E00E940F0337
:1008800082E060E00E940F0380E060E00E940F03BE
:1008900083E060E00E940F0327E731E008C088EEA4
:1008A00093E0F9013197F1F70197D9F7115011232E
:1008B000B1F71F910F910895CF93DF93EC0184E07E
:1008C0000E943C03C817D90758F587B38F6087BBD0
:1008D0000E94BA01F89481E061E00E941B0481E06B
:1008E00061E00E941B0481E061E00E941B0483E040
:1008F00061E00E941B0483E061E00E941B0483E02E
:1009000061E00E941B0481E061E00E941B0481E021
:1009100061E00E941B0481E063E00E941B04DBCFC6
:10092000DF91CF9108959C0140E050E084E0220FD8
:10093000331F441F551F8A95D1F760EC71EE84EE8A
:1009400090E00E9473052150304030BD29B90895D0
:10095000F894E0919100F0E0EE55FF4F8081909186
:100960009000983021F49091910090939000909194
:1009700091009F5F9093910090919100983010F0BA
:100980001092910078940895F894E091AA00F0E014
:10099000EE56FF4F80839091AA009F5F9093AA002C
:1009A0009091AA00903110F01092AA002091AA0014
:1009B00090918F00291719F490E19093AA00559A0D
:1009C0007894089588EB8AB908951AB808951F920B
:1009D0000F920FB60F9211248F939F93EF93FF9373
:1009E0008CB1909190009830D1F0E0919000F0E0BF
:1009F000EE55FF4F8083809190008F5F8093900031
:100A000080919000883010F01092900090919000AA
:100A100080919100981719F488E080939000FF91DD
:100A2000EF919F918F910F900FBE0F901F9018958F
:100A30001F920F920FB60F9211248F939F93EF93F3
:100A4000FF9390918F008091AA009817D9F0E091C0
:100A50008F00F0E0EE56FF4F90818091AA00803128
:100A600021F480918F008093AA0080918F008F5F86
:100A700080938F0080918F00803110F010928F0052
:100A80009CB901C05598FF91EF919F918F910F9064
:100A90000FBE0F901F901895AA1BBB1B51E107C0FA
:100AA000AA1FBB1FA617B70710F0A61BB70B881FFE
:100AB000991F5A95A9F780959095BC01CD0108958D
:100AC00097FB092E07260AD077FD04D0E5DF06D074
:100AD00000201AF4709561957F4F0895F6F7909570
:100AE00081959F4F0895A1E21A2EAA1BBB1BFD0101
:100AF0000DC0AA1FBB1FEE1FFF1FA217B307E407FD
:100B0000F50720F0A21BB30BE40BF50B661F771F54
:100B1000881F991F1A9469F7609570958095909534
:0E0B20009B01AC01BD01CF010895F894FFCFF9
:0C0B2E0001FC0000FF0301FC0000FF03BD
:00000001FF
