:100000000C942A000C9447000C9447000C94470071
:100010000C9447000C9447000C949F010C94C3016E
:100020000C9447000C9447000C9447000C94470034
:100030000C9447000C9447000C9425020C94470044
:100040000C9447000C9447000C9447000C94470014
:100050000C94470011241FBECFE5D4E0DEBFCDBF16
:1000600010E0A0E6B0E0EEE2FAE002C005900D92EA
:10007000A036B107D9F710E0A0E6B0E001C01D92AC
:10008000A938B107E1F70E9484000C9415050C947F
:1000900000000F931F93CF93DF93C0E0D0E0082FB1
:1000A0000170182F127081E0602F0E94EB0182E036
:1000B000602F0E94EB0180E0612F0E94EB0183E042
:1000C000612F0E94EB0188EC90E00E94890381E09F
:1000D00060E00E94EB0182E060E00E94EB0180E0C2
:1000E00060E00E94EB0183E060E00E94EB0188EC9D
:1000F00090E00E9489032196C530D105A1F6DF91D9
:10010000CF911F910F9108951F930E94E7010E94C4
:1001100009010E94E4020E940F02BC9A0E9463043B
:1001200078948AE090E00E9489030E94E8028F3F61
:1001300071F404C081E090E00E9489030E94E8020B
:100140008F3FC1F30E94F80382E00E9449000E94A1
:10015000F3028F3F71F404C081E090E00E948903B4
:100160000E94F3028F3FC1F30E94CA0381E00E9404
:10017000490018B380E00E94060420E0813A91050E
:1001800008F021E01E7F122B18BB18B380E00E94FC
:100190000604813F910510F480E001C082E01D7FDC
:1001A000182B18BB18B382E00E940604813A91050F
:1001B00010F480E001C088E0177F182B18BB18B33B
:1001C00082E00E940604813F910510F480E001C0A6
:1001D00084E01B7F182B18BB0E94E802813009F0D5
:1001E0009FCF0E94F302813009F09ACF04C081E0D2
:1001F00090E00E9489030E94E802813021F40E946D
:10020000F3028130A1F30E94920483E00E9449002E
:1002100087CF80917C00826080937C0082B3806F66
:1002200082BB81B3806F81BB82EF8FBD81E08EBDC9
:1002300089B789BF08958FB7F89410926200109221
:10024000610010926400109263001BBC1ABC19BCC0
:1002500018BC8FBF089562E070E00E94B904862F39
:10026000972F22E080309207D4F42EEF813092074E
:100270001CF481E09EEF02C097FF13C022273327B2
:10028000281B390B3093620020936100969B04C0B9
:1002900080916000827011C03BBD2ABD08958FEF30
:1002A00091E09093620080936100969B03C09BBD98
:1002B0008ABD0895809160008160809360001BBCBE
:1002C0001ABC89B7806189BF089562E070E00E941E
:1002D000B904862F972F22E080309207D4F42EEFB6
:1002E000813092071CF481E09EEF02C097FF13C09B
:1002F00022273327281B390B309364002093630097
:10030000979B03C039BD28BD08958091600082602D
:100310000BC08FEF91E09093640080936300979BF4
:100320000BC08091600081708093600019BC18BC84
:1003300089B7886089BF089599BD88BD08951F92C7
:100340000F920FB60F9211248F939F93859B14C029
:1003500082B39091600090FD02C090E001C090E4F3
:100360008F7B892B82BB80916100909162009BBD45
:100370008ABD89B78F7E89BF9F918F910F900FBEE5
:100380000F901F9018951F920F920FB60F92112485
:100390008F939F93849B14C082B39091600091FDD2
:1003A00002C090E001C090E88F77892B82BB8091DA
:1003B00063009091640099BD88BD89B7877F89BF2C
:1003C0009F918F910F900FBE0F901F90189587B33C
:1003D0008F6087BB0895662389F0813049F08130B2
:1003E00028F0823039F08330C9F406C0C09A0895ED
:1003F000C19A0895C29A0895C39A0895813049F028
:10040000813028F0823039F0833041F406C0C09842
:100410000895C1980895C2980895C3980895809149
:100420007C00816080937C008FEE86B9BC9A089531
:100430002FB7F894E82FF0E0EE0FFF1FEA59FF4FB7
:10044000808191812FBF089508951F920F920FB65A
:100450000F9211242F933F934F935F936F937F934A
:100460008F939F93AF93BF93EF93FF93809165001A
:1004700024B135B18530C9F1863080F4823031F154
:10048000833030F48823C1F0813009F04DC019C0A9
:10049000833009F1843009F047C022C08830A9F1C7
:1004A000893028F4863031F18730F1F529C0893060
:1004B00089F18A30C9F533C0309367002093660014
:1004C00033C030936900209368002EC030936B00D6
:1004D00020936A0029C030936D0020936C0024C0E3
:1004E00030937100209370001FC0309373002093ED
:1004F00072001AC03093750020937400C49814C021
:1005000030936F0020936E000FC0309377002093DC
:1005100076000AC0309379002093780005C03093AC
:100520007B0020937A00C49A8F5F809365008B30A4
:1005300010F01092650080916500853061F1863081
:1005400070F48230F9F0833028F48823B1F08130E0
:1005500031F516C08330D9F0843009F51AC08830DF
:10056000C1F0893028F4863081F08730C1F40FC0A3
:10057000893089F08A3099F410C081E487B911C0BC
:1005800082E401C083E487B90EC08EE5FCCF85E428
:10059000FACF86E4F8CF87E4F6CF80E4F4CF88235F
:1005A00011F40E942402FF91EF91BF91AF919F91AE
:1005B0008F917F916F915F914F913F912F910F900C
:1005C0000FBE0F901F90189585B3806F85BB08955F
:1005D00093B39073903111F48FEF089580E09032CF
:1005E00009F481E0089593B3907C903411F48FEF77
:1005F000089580E0903809F481E0089584E00E9435
:100600001802BC0180E093EC0E94A50449E150E08F
:10061000649F9001659F300D749F300D1124C901B6
:1006200008950F931F93082F162F81E061E00E9419
:10063000EB0182E061E00E94EB0180E061E00E945A
:10064000EB0183E061E00E94EB0127E731E008C0A5
:1006500088EE93E0F9013197F1F70197D9F701504E
:100660000023B1F781E060E00E94EB0182E060E0EE
:100670000E94EB0180E060E00E94EB0183E060E01B
:100680000E94EB0127E731E008C088EE93E0F90112
:100690003197F1F70197D9F711501123B1F71F9155
:1006A0000F910895CF93DF93EC0184E00E9418022C
:1006B000C817D90758F587B38F6087BB0E941B0105
:1006C000F89481E061E00E94110381E061E00E9402
:1006D000110381E061E00E94110383E061E00E9468
:1006E000110383E061E00E94110383E061E00E9456
:1006F000110381E061E00E94110381E061E00E944A
:10070000110381E063E00E941103DBCFDF91CF9101
:10071000089526EA3EE004C0F9013197F1F7019708
:100720000097D1F708951F93CF93DF93182F83304D
:1007300068F5885F0E941802EC01812F8B5F0E9490
:100740001802C81BD90BD7FF02C0C0E0D0E0BE0121
:10075000882777FD8095982F4AE0660F771F881FBE
:10076000991F4A95D1F7E12FF0E0EF01CC0FDD1F83
:10077000C358DF4FEE0FFF1FED57FF4F2081318130
:1007800040E050E00E94CC0439832883DF91CF9170
:100790001F91089584E690E00E94890380E00E9402
:1007A000930381E00E94930382E00E9493030895E3
:1007B0001F93CF93DF93182F8330B0F4885F0E948C
:1007C0001802EC01812F8B5F0E941802E12FF0E0EC
:1007D000EE0FFF1FED57FF4FC81BD90BD7FF02C00D
:1007E000C0E0D0E0D183C083DF91CF911F91089505
:1007F00084E690E00E94890380E00E94D80381E0B3
:100800000E94D80382E00E94D8030895EF92FF92DD
:100810000F931F93CF93DF93182F833008F049C0B5
:10082000885F0E941802EC01812F8B5F0E941802E2
:10083000C81BD90BD7FF02C0C0E0D0E0BE0188279B
:1008400077FD8095982FBAE0660F771F881F991F54
:10085000BA95D1F7C12FD0E0FE01EE0FFF1FED5783
:10086000FF4F2081318140E050E00E94CC04C9015B
:10087000DA01CC0FDD1FC358DF4F2881398140E0FA
:1008800050E0281739074A075B0798F47C018D016F
:10089000E21AF30A040B150BA8019701203000E8B7
:1008A000300700E0400700E0500728F02FEF3FE757
:1008B00002C020E030E0C901DF91CF911F910F917C
:1008C000FF90EF9008958DE790E060E070E04CE0DD
:1008D00050E00E94EE0480918300909184002FEFFD
:1008E0008F3F9207F1F480E092E090938400809330
:1008F000830020E033E030938600209385009093BE
:1009000088008093870084E090E090937E0080933D
:100910007D009093800080937F009093820080936D
:10092000810008958DE790E060E070E04CE050E0D9
:100930000E94FE04089580917C0080FD02C00E9408
:100940000F020E946304BC9A0895AA1BBB1B51E1CD
:1009500007C0AA1FBB1FA617B70710F0A61BB70B2F
:10096000881F991F5A95A9F780959095BC01CD01D4
:10097000089597FB092E07260AD077FD04D0E5DFFE
:1009800006D000201AF4709561957F4F0895F6F710
:10099000909581959F4F0895A1E21A2EAA1BBB1B2B
:1009A000FD010DC0AA1FBB1FEE1FFF1FA217B3073B
:1009B000E407F50720F0A21BB30BE40BF50B661F51
:1009C000771F881F991F1A9469F760957095809515
:1009D00090959B01AC01BD01CF010895DC01CB01D5
:1009E000FC01E199FECF06C0FFBBEEBBE09A319659
:1009F0000DB20D9241505040B8F70895DC01CB0183
:100A000003C02D910E94090541505040D0F7089530
:100A1000262FE199FECF9FBB8EBB2DBB0FB6F8945E
:0E0A2000E29AE19A0FBE01960895F894FFCF76
:00000001FF
